{
  "contractName": "TodoList",
  "abi": [
    {
      "constant": true,
      "inputs": [],
      "name": "taskCount",
      "outputs": [
        {
          "name": "",
          "type": "uint256"
        }
      ],
      "payable": false,
      "stateMutability": "view",
      "type": "function"
    },
    {
      "constant": false,
      "inputs": [
        {
          "name": "_title",
          "type": "string"
        }
      ],
      "name": "addTask",
      "outputs": [],
      "payable": false,
      "stateMutability": "nonpayable",
      "type": "function"
    },
    {
      "constant": false,
      "inputs": [
        {
          "name": "id",
          "type": "uint256"
        },
        {
          "name": "_title",
          "type": "string"
        }
      ],
      "name": "editTitle",
      "outputs": [],
      "payable": false,
      "stateMutability": "nonpayable",
      "type": "function"
    },
    {
      "constant": false,
      "inputs": [
        {
          "name": "id",
          "type": "uint256"
        }
      ],
      "name": "editStatus",
      "outputs": [],
      "payable": false,
      "stateMutability": "nonpayable",
      "type": "function"
    },
    {
      "constant": false,
      "inputs": [
        {
          "name": "id",
          "type": "uint256"
        }
      ],
      "name": "deleteTask",
      "outputs": [],
      "payable": false,
      "stateMutability": "nonpayable",
      "type": "function"
    }
  ],
  "bytecode": "0x60806040526000805534801561001457600080fd5b506105a8806100246000396000f3fe608060405260043610610067576000357c010000000000000000000000000000000000000000000000000000000090048063560f31921461006c57806367238562146100a7578063b6cb58a51461016f578063cc68c46e1461019a578063f36fd108146101d5575b600080fd5b34801561007857600080fd5b506100a56004803603602081101561008f57600080fd5b81019080803590602001909291905050506102a7565b005b3480156100b357600080fd5b5061016d600480360360208110156100ca57600080fd5b81019080803590602001906401000000008111156100e757600080fd5b8201836020820111156100f957600080fd5b8035906020019184600183028401116401000000008311171561011b57600080fd5b91908080601f016020809104026020016040519081016040528093929190818152602001838380828437600081840152601f19601f8201169050808301925050505050505091929192905050506102ec565b005b34801561017b57600080fd5b5061018461037f565b6040518082815260200191505060405180910390f35b3480156101a657600080fd5b506101d3600480360360208110156101bd57600080fd5b8101908080359060200190929190505050610385565b005b3480156101e157600080fd5b506102a5600480360360408110156101f857600080fd5b81019080803590602001909291908035906020019064010000000081111561021f57600080fd5b82018360208201111561023157600080fd5b8035906020019184600183028401116401000000008311171561025357600080fd5b91908080601f016020809104026020016040519081016040528093929190818152602001838380828437600081840152601f19601f8201169050808301925050505050505091929192905050506103e0565b005b600160008281526020019081526020016000206000808201600090556001820160006102d3919061040f565b6002820160006101000a81549060ff0219169055505050565b60008081548092919060010191905055506060604051908101604052806000548152602001828152602001600015158152506001600080548152602001908152602001600020600082015181600001556020820151816001019080519060200190610358929190610457565b5060408201518160020160006101000a81548160ff02191690831515021790555090505050565b60005481565b60006001600083815260200190815260200160002060020160009054906101000a900460ff16905080156001600084815260200190815260200160002060020160006101000a81548160ff0219169083151502179055505050565b8060016000848152602001908152602001600020600101908051906020019061040a9291906104d7565b505050565b50805460018160011615610100020316600290046000825580601f106104355750610454565b601f0160209004906000526020600020908101906104539190610557565b5b50565b828054600181600116156101000203166002900490600052602060002090601f016020900481019282601f1061049857805160ff19168380011785556104c6565b828001600101855582156104c6579182015b828111156104c55782518255916020019190600101906104aa565b5b5090506104d39190610557565b5090565b828054600181600116156101000203166002900490600052602060002090601f016020900481019282601f1061051857805160ff1916838001178555610546565b82800160010185558215610546579182015b8281111561054557825182559160200191906001019061052a565b5b5090506105539190610557565b5090565b61057991905b8082111561057557600081600090555060010161055d565b5090565b9056fea165627a7a72305820ce982deadd601a23d738475db451df1dde58381ab5998f41c9cc13a0c5aa00250029",
  "source": "// SPDX-License-Identifier: SEE LICENSE IN LICENSE\r\npragma solidity >=0.5.1 <0.9.0;\r\n\r\ncontract TodoList {\r\n    uint public taskCount = 0;\r\n\r\n    struct Task {\r\n        uint id;\r\n        string title;\r\n        bool status;\r\n    }\r\n\r\n    mapping(uint => Task) tasks;\r\n\r\n    function addTask(string memory _title) public {\r\n        taskCount++;\r\n        tasks[taskCount] = Task(taskCount, _title, false);\r\n    }\r\n\r\n    function editTitle(uint id, string memory _title) public {\r\n        tasks[id].title = _title;\r\n    }\r\n\r\n    function editStatus(uint id) public {\r\n        bool currStatus = tasks[id].status;\r\n        tasks[id].status = !currStatus;\r\n    }\r\n\r\n    function deleteTask(uint id) public {\r\n        delete tasks[id];\r\n    }\r\n}\r\n",
  "sourcePath": "D:\\Coding Stuff\\Web Dev\\009-Smart-Contracts\\Todo list\\contracts\\TodoList.sol",
  "compiler": {
    "name": "solc",
    "version": "0.5.1+commit.c8a2cb62.Emscripten.clang"
  },
  "schemaVersion": "3.4.16",
  "updatedAt": "2023-10-04T17:46:40.260Z",
  "networkType": "ethereum",
  "devdoc": {
    "methods": {}
  },
  "userdoc": {
    "methods": {}
  }
}